:020000040800F2
:10000000B83302200D030008DB1E0008CD1B0008DA
:10001000711E000839060008BD5A000800000000E3
:10002000000000000000000000000000F550000883
:10003000E109000800000000D1050008AD510008EA
:100040004703000847030008470300084703000868
:100050004703000847030008470300084703000858
:100060004703000847030008470300084703000848
:100070004703000847030008470300084703000838
:100080004703000847030008470300084703000828
:100090004703000847030008470300084703000818
:1000A0004703000847030008470300084703000808
:1000B00047030008470300084703000847030008F8
:1000C00047030008470300084703000847030008E8
:1000D00047030008095A00084703000847030008BF
:1000E00047030008470300084703000847030008C8
:1000F00047030008470300084703000847030008B8
:1001000047030008470300084703000847030008A7
:100110004703000847030008470300084703000897
:100120004703000847030008470300084703000887
:100130004703000847030008470300084703000877
:100140004703000847030008470300084703000867
:100150004703000847030008470300084703000857
:100160004703000847030008470300084703000847
:100170004703000847030008470300080000000089
:100180004703000847030008470300084703000827
:100190004703000847030008470300084703000817
:1001A0004703000847030008470300084703000807
:1001B00047030008470300084703000847030008F7
:1001C0004703000847030008000000004703000839
:1001D00047030008470300084703000847030008D7
:1001E00047030008470300084703000847030008C7
:1001F000470300084703000800F002F800F05CF82D
:100200000AA090E8000C82448344AAF10107DA4571
:1002100001D100F051F8AFF2090EBAE80F0013F067
:10022000010F18BFFB1A43F001031847E45D0000FB
:10023000045E00000A444FF0000C10F8013B13F07C
:10024000070408BF10F8014B1D1108BF10F8015B2F
:10025000641E05D010F8016B641E01F8016BF9D122
:1002600013F0080F1EBF10F8014BAD1C0C1B09D179
:100270006D1E58BF01F801CBFAD505E014F8016BEB
:1002800001F8016B6D1EF9D59142D6D3704700007D
:100290000023002400250026103A28BF78C1FBD88F
:1002A000520728BF30C148BF0B6070471FB505F02B
:1002B0009DFD1FBD10B510BD00F0E6F81146FFF71B
:1002C000F5FF05F0BDFC00F018F903B4FFF7F2FFED
:1002D00003BC05F0F5FB000072B6704762B67047CC
:1002E000EFF3108072B6704780F31088704730BF0C
:1002F000704720BF7047B0FA80F0704790FAA0F0C6
:10030000B0FA80F0704790FAA0F07047114880472B
:10031000DFF84400016841F470010160BFF34F8FC2
:10032000DFF83800016821F040410160BFF36F8FB2
:100330000B480047FEE7FEE7FEE7FEE7FEE7FEE7C5
:10034000FEE7FEE7FEE7FEE706480749074A084BD7
:1003500070470000CD51000888ED00E034EF00E068
:10036000F9010008B82D0220B8330220B82F02206E
:10037000B82F0220704700000FB4044910B503AA3B
:10038000029800F053F810BC5DF814FB3000022016
:100390004FF000020429C0F0128010F0030C00F0AE
:1003A0001B80CCF1040CBCF1020F18BF00F8012B2C
:1003B000A8BF20F8022BA1EB0C0100F00DB85FEAFA
:1003C000C17C24BF00F8012B00F8012B48BF00F8C6
:1003D000012B70474FF0000200B513469446964635
:1003E000203922BFA0E80C50A0E80C50B1F1200148
:1003F000BFF4F7AF090728BFA0E80C5048BF0CC0F6
:100400005DF804EB890028BF40F8042B08BF704753
:1004100048BF20F8022B11F0804F18BF00F8012BC5
:10042000704770477047704770470000074B70B5C2
:100430000D467B4400F011F80446284600F020F8F1
:1004400010B14FF0FF3070BD204670BDEF57000077
:1004500001694A1C02610878704700B58FB0CDE988
:1004600001310021059105497944CDE90310114678
:10047000684600F02EF80FB000BD0000E5FFFFFF5A
:10048000007B00F080007047754600F03FF8AE46F4
:1004900005006946534620F00700854618B020B590
:1004A000FFF752FFBDE820404FF000064FF0000775
:1004B0004FF000084FF0000B21F00701AC46ACE80C
:1004C000C009ACE8C009ACE8C009ACE8C0098D4679
:1004D00070472DE9F04106460024D6E90170F56821
:1004E0008046304603E04146B847641C3046A84782
:1004F0000028F8D12046BDE8F08110B50446AFF3DE
:1005000000802046BDE81040FFF7DFBE004870477E
:10051000582D0220EFF3098141B1F1EE101A40F895
:10052000041D20ED200A3E490A6810607047B0ECB7
:10053000200A02C8E1EE101A3A490A6810607047B2
:1005400072B64EF62250CEF2000040F2FF01C0F229
:10055000000101704FF0000080F3098802F0B0FE46
:1005600040F24410C2F20200016881F3088840F2B0
:10057000CA00C2F2020040F2CB01C2F202010A78C4
:10058000027040F23C15C2F2020540F24011C2F284
:1005900002010A682A60106880F30988EFF314806A
:1005A00040F0020080F31488BFF36F8FBDE8F00FB6
:1005B0000FBCBDE8005006BC62B608471A484FF0B1
:1005C00080510160704718484FF0805101607047BA
:1005D00072B6EFF3098020E9F00F40F23C15C2F249
:1005E00002052E683060744602F06AFE40F2CA00CE
:1005F000C2F2020040F2CB01C2F202010A7802709C
:1006000040F24011C2F202010A682A6044F0F40E7E
:100610001068B0E8F00F80F3098862B670470000F8
:100620003C0102204001022004ED00E010B500F082
:10063000D7FC0446204610BD00BFFEE710B500F011
:10064000FBF800F003F800F0F3F810BD70B50026D9
:10065000002018490880184908801849086018497E
:1006600008601849086018490860184908600024A3
:1006700000BFFFF735FE064600BF00250BE0002057
:100680001049086000F074F800F08CF80D4800681C
:100690000444681C85B2002DF1D00C480460002091
:1006A000084908600849086000BF3046FFF71CFE93
:1006B00000BF70BD680002206A0002206C000220AA
:1006C00070000220780002207C00022074000220CA
:1006D00001460846044A1268904203D9024A126849
:1006E000801A00E0002070477400022070B50025D9
:1006F00000BFFFF7F5FD054600BF0648046800BFD0
:100700002846FFF7F1FD00BF2046FFF7E1FF064650
:10071000304670BD7800022070B50025FFF7E6FF77
:10072000044600BFFFF7DCFD054600BF002004497A
:10073000086000BF2846FFF7D7FD00BF204670BD08
:100740007800022070B5002500BFFFF7C9FD0546FF
:1007500000BF0648046800BF2846FFF7C5FD00BF7C
:100760002046FFF7B5FF0646304670BD7C000220EC
:1007700010B509480088401C0749088007480088D0
:1007800018B900F083F80649086004480088401C46
:100790000249088010BD0000680002206A000220A3
:1007A0006C00022010B50F480088401E0D490880DB
:1007B00008460088A0B900F069F80B4908600846AF
:1007C00000680A490968441A09480068A04201D231
:1007D0000748046007480068A04201D20548046049
:1007E00010BD00006A000220700002206C00022090
:1007F000780002207C00022010B5002400BF00BF5A
:10080000FFF76EFD044600BFFFF7B2FF00BF1021E7
:10081000064801F02FFB00BFFFF7C4FF00BF2046D2
:10082000FFF762FD00BF00BF10BD0000AC17022043
:1008300010B5FFF7E1FF10BD10B5002002490860B8
:1008400000F00AF810BD00006400022001490860B1
:10085000704700006400022010B5FFF7E7FE044671
:100860000848006840F0807006490860002006498A
:1008700048600846006840F0010008602046FFF725
:10088000E5FF10BDFCED00E0001000E00149486804
:1008900070470000001000E010B500BF00BF00BFAF
:1008A00000BF00BFBFF34F8F00BF00BF00BF00BF3E
:1008B00000BF00BFBFF36F8F00BF00BF00BF0020AD
:1008C000114908601148006840F400300F49086081
:1008D00000BF00BF00BFBFF34F8F00BF00BF00BF0E
:1008E00000BF00BF00BFBFF36F8F00BF00BF00BFDE
:1008F00000BF04F0B1FB04484C30006840F0040035
:1009000001494C31086010BD50EF00E014ED00E0EB
:100910000EB50020029001F017FA002003460246AF
:100920004FF4E131009004F0A3FD4EE02748007839
:10093000F8B100F057F826484088A0F5005010386C
:1009400018B1B0F5004F10D107E022482049891DA9
:100950000A6802604968416007E01E481C49891D19
:100960000A6802604968416000BF00BF0020174963
:10097000087019480078F8B115480079821D4FF4C5
:100980007A731349154801F0BDF84FF47A730222C7
:100990000F493831114801F0B5F800BF0F48006821
:1009A000C069C0F380100028F8D03A210848FFF74A
:1009B000EFFC00200849087002A8002114230A4611
:1009C000CDE90010084602F029FDAFE70000022043
:1009D00048010220100002202C000220CC1302202B
:1009E0007047000010B50A4805F07CF90848801CE3
:1009F00005F078F90648801D05F07AF904480930B9
:100A000005F076F90248383005F06CF910BD0000A9
:100A100082010220014691F83500022803D080208F
:100A2000486501207047052081F835000868006896
:100A300020F001000A6810600020F3E7F8B50246D4
:100A40000B46002100250024002000BFE4E0012621
:100A500006FA01F51E6806EA0504AC4271D15E682B
:100A6000022E02D05E68122E13D1CF0802F12006AA
:100A700056F827004E07F70E0F26BE40B0434F072B
:100A8000FF0E1E69BE403043CF0802F1200646F833
:100A9000270010684F000326BE40B0431E7906F0C1
:100AA00003064F00BE40304310605E68012E08D040
:100AB0005E68022E05D05E68112E02D05E68122E8E
:100AC00013D190684F000326BE40B0434F00DE684C
:100AD000BE4030439060506801268E40B0431E797E
:100AE000C6F300168E4030435060D0684F00032696
:100AF000BE40B0434F009E68BE403043D0605E6849
:100B000006F08056B6F1805FA8D100BF444E36682B
:100B100046F48046424F3E603E46366806F48046C4
:100B2000009600BF00BF3F4E8F0856F827008E0783
:100B3000370F0F26BE40B0433B4EB24202D10026D3
:100B40002EE068E0394EB24201D1012628E0384E4D
:100B5000B24201D1022623E0364EB24201D1032631
:100B60001EE0354EB24201D1042619E0334EB242A6
:100B700001D1052614E0324EB24201D106260FE023
:100B8000304EB24201D107260AE02F4EB24201D1C7
:100B9000082605E02D4EB24201D1092600E00A26C2
:100BA0008F073F0FBE4030431E4E8F0846F8270088
:100BB000274E3068A0435E6806F48036B6F5803F65
:100BC00000D12043224E3060361D3068A0435E685D
:100BD00006F40036B6F5003F00D120431C4E361D0A
:100BE0003060361D3068A0435E6806F48016B6F5A6
:100BF000801F00D12043164E08363060361D306805
:100C0000A0435E6806F40016B6F5001F00D120432D
:100C10000F4E0C363060491C1029FFF418AFF8BD98
:100C200044380240083801400000024000040240FD
:100C300000080240000C0240001002400014024074
:100C400000180240001C0240002002400024024024
:100C5000003C0140024613690B400BB1012000E04B
:100C6000002070470AB1816101E00B048361704785
:100C700001480068704700006000022002480068D8
:100C8000401C0149086070476000022010B5084808
:100C9000006840F4007006490860032000F06AF81C
:100CA0000F2000F007F800F019F8002010BD000038
:100CB000003C024070B50446074800684FF47A7162
:100CC000B0FBF1F5284600F093FC00222146501EAF
:100CD00000F012F8002070BD20000220704700BF15
:100CE00000F01F02012191404209920002F1E0222E
:100CF000C2F8001100BF70472DE9F05F80460D4635
:100D00001646002701F0EAF8074639462A463346D8
:100D100001F00700C0F1070ABAF1040F02D94FF041
:100D2000040A01E0C0F1070AD14600F1040ABAF151
:100D3000070F02D24FF0000A01E0A0F1030AD446E7
:100D40004FF0010A0AFA09FAAAF1010A0AEA020AAC
:100D50000AFA0CFA4FF0010B0BFA0CFBABF1010B8A
:100D60000BEA030B4AEA0B042146404601F0BEF8A9
:100D7000BDE8F09F00BF00F00702064B19684FF670
:100D8000FF031940044B0B4343EA0221014B196056
:100D900000BF70470CED00E00000FA0538B50024F4
:100DA00000BF2048006840F080501E490860084697
:100DB000006800F08050009000BF00BF1A48006833
:100DC00040F4803018490860FFF752FF044607E0FE
:100DD000FFF74EFF001BB0F57A7F01D9032038BD25
:100DE0001148406800F48030B0F5803FF0D10E48E3
:100DF000006840F400300C490860FFF739FF0446F2
:100E000007E0FFF735FF001BB0F57A7F01D903201B
:100E1000E5E70548406800F40030B0F5003FF0D148
:100E20000020DCE7403802400070004070B5044606
:100E30000D4600266648006800F00F00A8420ED25A
:100E40006348006820F00F002843614908600846A5
:100E5000006800F00F00A84201D0012070BD20788A
:100E600000F00200022807D15A48006820F0F00084
:100E7000A168084357490860207800F00100002865
:100E800060D06068012807D1524808380068C0F374
:100E90004040A0B90120E1E76068022807D14D4831
:100EA00008380068C0F3406048B90120D6E74948D7
:100EB00008380068C0F3400008B90120CEE7454873
:100EC000006820F003006168084342490860FFF7AA
:100ED000CFFE06466068012810D108E0FFF7C8FE83
:100EE000801B41F28831884201D90320B6E7394896
:100EF000006800F00C000428F0D123E060680228AC
:100F000010D108E0FFF7B4FE801B41F2883188421F
:100F100001D90320A2E72F48006800F00C00082840
:100F2000F0D10FE008E0FFF7A3FE801B41F288310B
:100F3000884201D9032091E72648006800F00C00A0
:100F40000028F0D12248006800F00F00A8420ED916
:100F50001F48006820F00F0028431D49086008461C
:100F6000006800F00F00A84201D0012076E7207849
:100F700000F00400042807D11648006820F4E0506F
:100F8000E168084313490860207800F00800082849
:100F900008D11048006820F46040216940EAC1008F
:100FA0000C49086000F04EF80A49096801F0F001A8
:100FB000F02292FAA2F2B2FA82F2D140064A515CD1
:100FC000C840064908600F20FFF774FE002045E77F
:100FD000003C024008380240F65D00082000022074
:100FE00001480068704700002000022000B5FFF7AC
:100FF000F7FF0749096801F4E0514FF4E05292FA13
:10100000A2F2B2FA82F2D140024A515CC84000BD5D
:1010100008380240065E000800B5FFF7E1FF074907
:10102000096801F460414FF4604292FAA2F2B2FA08
:1010300082F2D140024A515CC84000BD08380240EB
:10104000065E000870B50021002200230020274C16
:10105000246804F00C0424B1042C04D0082C41D1E1
:1010600003E0234840E023483EE0204C241F24684E
:1010700004F03F011D4C241F246804F4800484B153
:101080001C4CB4FBF1F5194C241F246847F6C076BC
:10109000344096FAA6F6B6FA86F6F44005FB04F25A
:1010A0000FE0134CB4FBF1F5104C241F246847F6F5
:1010B000C076344096FAA6F6B6FA86F6F44005FBFA
:1010C00004F20A4C241F246804F440344FF44035E1
:1010D00095FAA5F5B5FA85F5EC40641C6300B2FB02
:1010E000F3F001E0024800BF00BF70BD08380240C5
:1010F0000024F40040787D0138B5044600252078AE
:1011000000F00100002871D0FE48006800F00C00DB
:1011100004280DD0FB48006800F00C00082813D10B
:10112000F848001F006800F48000B0F5800F0BD174
:10113000F44808380068C0F34040002869D060686F
:10114000002866D1012038BD00BF6068B0F5803F3F
:1011500008D1EC480838006840F48030E949083983
:1011600008602EE0606868B9E6480838006820F436
:101170008030E449083908600846006820F480207F
:1011800008601EE06068B0F5A02F0DD1DD4808387A
:10119000006840F48020DB49083908600846006890
:1011A00040F4803008600CE0D6480838006820F42D
:1011B0008030D449083908600846006820F480204F
:1011C000086000BF606890B1FFF752FD054606E079
:1011D000FFF74EFD401B642801D90320B3E7C9483F
:1011E00008380068C0F340400028F1D011E0FFF754
:1011F0003FFD054606E0FFF73BFD401B642801D993
:101200000320A0E7BF4808380068C0F3404000282A
:10121000F1D1207800F00200022873D1B9480068AB
:1012200000F00C0058B1B748006800F00C00082826
:1012300021D1B448001F006800F48000D8B9B1483B
:1012400008380068C0F3400020B1E068012801D0F0
:10125000012078E7AB480838006820F0F800F82251
:1012600092FAA2F2B2FA82F2216991400843A549AA
:101270000839086046E0E06850B3A24808380068C2
:1012800040F001009F4908390860FFF7F1FC05466E
:1012900006E0FFF7EDFC401B022801D9032052E7CE
:1012A000984808380068C0F340000028F1D09548FD
:1012B0000838006820F0F800F82292FAA2F2B2FA98
:1012C00082F22169914008438E490839086019E08B
:1012D0008C480838006820F001008A490839086005
:1012E000FFF7C6FC054606E0FFF7C2FC401B0228DC
:1012F00001D9032027E7834808380068C0F340007D
:101300000028F1D1207800F00800082836D1606963
:10131000D0B17C486C30006840F0010079496C31F4
:101320000860FFF7A5FC054606E0FFF7A1FC401B9F
:10133000022801D9032006E772486C300068C0F328
:1013400040000028F1D019E06E486C30006820F0B1
:1013500001006C496C310860FFF78AFC054606E025
:10136000FFF786FC401B022801D90320EBE6654805
:101370006C300068C0F340000028F1D1207800F004
:101380000400042871D100BF5E483830006840F086
:1013900080505C49383108600846006800F0805091
:1013A000009000BF00BF5848006840F48070564964
:1013B0000860FFF75DFC054606E0FFF759FC401B9F
:1013C000642801D90320BEE64F48006800F480700D
:1013D0000028F2D000BFA068012808D14948683031
:1013E000006840F001004749683108602DE0A068BE
:1013F00068B944486830006820F00100414968310C
:1014000008600846006820F0040008601DE0A0683D
:1014100005280DD13B486830006840F00400394988
:10142000683108600846006840F0010008600CE080
:1014300034486830006820F00100324968310860A3
:101440000846006820F00400086000BFA068A8B14A
:10145000FFF70EFC054609E0FFF70AFC401B41F2CE
:101460008831884202D903206DE61BE025486830A8
:101470000068C0F340000028EED013E0FFF7F8FB4F
:10148000054608E0FFF7F4FB401B41F28831884233
:1014900001D9032057E61B4868300068C0F34000BC
:1014A0000028EFD1A06988B31648006800F00C004E
:1014B000082873D0A069022864D11248083800684F
:1014C00020F080700F4908390860FFF7D1FB05460E
:1014D00006E0FFF7CDFB401B022801D9032032E6CE
:1014E000084808380068C0F340600028F1D1D4E90A
:1014F0000701084347F6C07292FAA2F2B2FA82F2EA
:10150000616A04E0083802400070004058E09140F1
:1015100008430122A16AC2EB51014FF4403292FA12
:10152000A2F2B2FA82F2914008434FF0706292FA4E
:10153000A2F2B2FA82F2E16A914008434FF0E0422F
:1015400092FAA2F2B2FA82F2216B914008431D494D
:101550000860081F006840F08070091F0860FFF7EE
:1015600087FB054606E0FFF783FB401B022801D9F5
:101570000320E8E51348001F0068C0F3406000281E
:10158000F1D01DE00F48001F006820F080700D4969
:10159000091F0860FFF76CFB054607E00EE0FFF748
:1015A00067FB401B022801D90320CCE50548001F3A
:1015B0000068C0F340600028F1D101E00120C2E5DD
:1015C0000020C0E504380240042808D14FF0E02193
:1015D000096941F004014FF0E022116107E04FF08A
:1015E000E021096921F004014FF0E0221161704708
:1015F00070B504462546681EB0F1807F01D30120F6
:101600000FE0681E4FF0E02148610F214FF0FF30DE
:1016100000F06CFC00204FF0E02188610720086199
:10162000002070BD704700002DE9F041044620689D
:10163000C569206806682068876805F00F08B8F15A
:10164000000F0AD105F0200038B106F0200020B1CB
:10165000204603F063FFBDE8F081B8F1000F79D0B8
:1016600040F201103840002874D005F0010048B164
:1016700006F4807030B1012021680862E06E40F00D
:101680000100E06605F0020048B107F0010030B14A
:10169000022021680862E06E40F00400E06605F078
:1016A000040048B107F0010030B10420216808624D
:1016B000E06E40F00200E06605F0080060B106F060
:1016C000200010B907F0010030B10820216808623D
:1016D000E06E40F00800E066E06E58B305F02000D0
:1016E00028B106F0200010B1204603F017FFE06E8D
:1016F00000F0080020B92068806800F0400018B3AE
:10170000204603F050FE2068806800F04000B8B129
:101710002068806820F0400021688860606E50B1C9
:101720001748616E0865606EFFF774F910B1606E5E
:10173000016D88470DE02046FFF774FF09E009E0DE
:101740002046FFF76FFF04E02046FFF76BFF002005
:10175000E06680E705F0800030B106F0800018B147
:10176000204604F0E5F876E705F0400030B106F0D9
:10177000400018B1204603F026FE6CE700BF6AE780
:101780008F53000810B504460CB9012010BDA069A4
:1017900000B100E000BF94F8690028B9002084F887
:1017A0006800204600F02AF8242084F869002068A8
:1017B000006820F0010021680860204603F0F2FE76
:1017C000012800D1E2E7606A10B1204603F030FD45
:1017D0002068406820F49040216848602068806854
:1017E00020F02A00216888602068006840F001002D
:1017F00021680860204603F090FDC7E710B5044655
:1018000003492068884201D104F010F910BD00009E
:101810000010014010B5034693F86A0020285BD100
:1018200001B10AB9012010BD00BF93F8680001287A
:1018300001D10220F7E7012083F8680000BF596555
:10184000A3F85820A3F85A2000BF9868B0F5805F2D
:101850000AD1186920B940F2FF10A3F85C001CE01F
:10186000FF20A3F85C0018E0986848B9186918B917
:10187000FF20A3F85C0010E07F20A3F85C000CE0E0
:101880009868B0F1805F08D1186918B97F20A3F873
:101890005C0002E03F20A3F85C0000BF0020D86697
:1018A000222083F86A0000BF002083F8680000BF90
:1018B0001868006840F480701C68206018688068B0
:1018C00040F001001C68A0601868006840F020002B
:1018D0001C6820600020A6E70220A4E7F8B50546B2
:1018E000284603F081FD0446082C00D3F8BDFFF71D
:1018F000BFF904EB44117A4A42F8310004EB44107A
:10190000114601EBC000C688701CB0F5807F79D805
:1019100074492868884275D17348005D0090734807
:101920000078052870D006DC052822D2DFE800F018
:101930000C223C4A580006287ED0072874D008287C
:1019400073D0352815D1C6E09DF8000003280DD1CD
:10195000674868490860084600689DF800100170F3
:1019600062480078401C6149087002E000205F492D
:101970000870B1E09DF800009C280DD15D4800681A
:10198000401C5C4908609DF80010017057480078C1
:10199000401C5649087006E00020544908703A215E
:1019A0005348FEF7F5FC97E052480068401C514947
:1019B00008609DF8001001704C480078401C4B49AD
:1019C000087089E04B480068401C4A4908609DF84F
:1019D0000010017045480078401C444908707BE0C5
:1019E00044480068401C434908609DF8001001709D
:1019F0009DF80000404908703C480078401C3B4975
:101A0000087069E06AE0FFE73A480068401C39491D
:101A100008609DF8001001703748007830B9072041
:101A20003249087007E007E035E041E02F480078D0
:101A3000401C2E4908704FE0304800782E49097844
:101A400088420CDA2D480078401C2C49087029483F
:101A50000068401C274908609DF800100170274865
:101A6000007825490978884203D107201F4908706A
:101A700010E0224800782049097888420ADD0020D9
:101A80001A4908701D4908701B4908703A21184806
:101A9000FEF77EFC20E01648008F9DF800100843FA
:101AA0001349088711480078401C1049087013E05A
:101AB0000F48008F9DF8001040EA01200C4908876C
:101AC00000200E4908700C49087008490870012070
:101AD0000B49087000E000BF00BF00BF00BF05E772
:101AE0008C0B022000100140540002205C000220F8
:101AF00048010220280002205D0002205E00022032
:101B00002C0002202DE9F84304460D4616461F46D8
:101B10004FF0000994F86900202854D105B116B996
:101B20000120BDE8F88300BF94F86800012801D1C6
:101B30000220F6E7012084F8680000BF002050343E
:101B4000E06121206076FFF793F881462680668069
:101B5000503C21E0B4F85200401EA4F852004B461D
:101B6000002280212046009703F017FF08B10320D0
:101B7000D7E7A068B0F5805F0AD1206940B9A846D0
:101B8000B8F80000C0F3080021688862AD1C03E0CB
:101B900015F8010B21688862B4F852000028D9D1E9
:101BA0004B46002240212046009703F0F6FE08B184
:101BB0000320B6E7202084F8690000BF002084F8E5
:101BC000680000BFADE70220ABE7704700BFFEE74B
:101BD00000B587B000BF2448006840F001002249EA
:101BE00008600846006800F00100019000BF00BFD7
:101BF00000BF0846006840F004000860084600681E
:101C000000F00400019000BF00BF00BF084600685C
:101C100040F0800008600846006800F080000190F5
:101C200000BF00BF0120029000200390022004901A
:101C30000320059002A90D48FEF700FF4FF4005065
:101C4000029000200390012004900320059002A937
:101C50000748FEF7F3FE0C20029002A90548FEF7A4
:101C6000EDFE07B000BD0000303802400000024029
:101C700000080240001C024010B50446012C01D1AE
:101C80002D4908702C480078002839D008212B48AD
:101C9000FEF7E0FF80B104212848FEF7DBFF58B1D2
:101CA0004FF400512648FEF7D5FF28B10121254801
:101CB000FEF7D0FF012823D10A2003F031FF0020D6
:101CC0001D49087008211D48FEF7C4FF08B901200E
:101CD00010BD04211948FEF7BDFF08B90220F7E73F
:101CE0004FF400511648FEF7B5FF08B90320EFE79F
:101CF00001211448FEF7AEFF01281BD10420E7E7BD
:101D000008210E48FEF7A6FF012813D104210B4835
:101D1000FEF7A0FF01280DD141030948FEF79AFF05
:101D2000012807D101210748FEF794FF10B90120CF
:101D3000014908700020CBE724000220001C02406B
:101D4000000802400000024000B587B000BF124802
:101D5000006840F00200104908600846006800F082
:101D60000200019000BF00BF0320029001200390F9
:101D700004900320059002A90848FEF75FFE0122A7
:101D800011460648FEF76EFF012202210348FEF7C6
:101D900069FF07B000BD0000303802400004024077
:101DA00008B5002000900024FFF712FF48E06A46C3
:101DB00008210A2001F0DAFA0020FFF75DFF04464F
:101DC000012C06D0022C2ED0032C30D0042C36D17E
:101DD00031E09FED1C0A1C4880ED000A9FED1B0AB4
:101DE00080ED010AD0ED010A90ED000A03F0FEFE3D
:101DF000C0B117480079821D4FF47A731449154811
:101E0000FFF780FE4FF47A730222114938311148EE
:101E1000FFF778FE00BF0F480068C069C0F380106C
:101E20000028F8D00BE00CA0FEF7A6FA07E00CA003
:101E3000FEF7A2FA03E00CA0FEF79EFA00BF00BF77
:101E4000B5E70000A4709D3F08000220F628BC40C2
:101E500082010220CC1302200D0A2031200D0A003D
:101E60000D0A2032200D0A000D0A2033200D0A0031
:101E700000BFFEE730B505460C4622460021284645
:101E800000F001F830BD2DE9F04105460B469446BF
:101E90000027002402E03F021F43641C042CFAD3F5
:101EA000604605F00306294646B1344603E001F8D2
:101EB000013B401E641C08B1042CF8D30A4601E023
:101EC00080C2001F0428FBD2114602E001F8013B4A
:101ED000401E0028FAD1BDE8F08170470248006832
:101EE000C0F30220704700000CED00E010B50028A0
:101EF00007DA0A07140E054A00F00F031B1FD4541B
:101F000003E00A07130E024A135410BD18ED00E057
:101F100000E400E07047000010B50348006810B10D
:101F200001480068804710BD9400022070B5044647
:101F300000F0A2F800203E4908703E4908703E4972
:101F400008703E4908603E4908603E4908703E49B5
:101F500008703E4908703E48006858B13D48056821
:101F600045B13B48066803E0761E002028602D1D21
:101F7000002EF9D1002038490860384908603849F6
:101F800008603849086038490860384908603849AD
:101F900008603849087001F0C3FE01F0FDFE2046DC
:101FA00001F0C6FB208800B170BD204601F02AFC7C
:101FB000208800B1F8E7204601F030FC208800B10D
:101FC000F2E7204601F0F2FC208800B1ECE7204661
:101FD00001F0D6FE208800B1E6E7204601F070FF50
:101FE000208800B1E0E7204602F034FA208800B1F2
:101FF000DAE7204601F0CEFB208800B1D4E7204686
:1020000002F0AAFE208800B1CEE7204602F0F6F8E2
:10201000208800B1C8E7204602F002FF208800B106
:10202000C2E701F0B1FAFFF775FF00BFBCE700009F
:10203000A8000220B0000220D60002203C010220AD
:1020400040010220CA000220CB000220CC00022066
:10205000405E00083C5E0008880002208C000220E0
:102060009000022094000220980002209C00022090
:10207000A000022002010220064800680649096803
:1020800000EB8100054908600846006820F0070061
:10209000086070473C5E0008405E00084401022072
:1020A00008480078012800D0704707480078FA28CF
:1020B00000DBF9E704480078401C0349087000BFC2
:1020C000F2E70000B0000220A800022010B50024B2
:1020D0002D480078012800D010BD00BFFEF700F9A0
:1020E000044600BF2948007828B900BF2046FEF703
:1020F000FBF800BFF0E725480078401E2349087030
:1021000008460078002805DD00BF2046FEF7ECF801
:1021100000BFE1E71E480078002805DD00BF20462B
:10212000FEF7E2F800BFD7E701F0E6FD19490870B5
:102130000846007800EB4000174951F82000174985
:1021400008600846006816490968884205D100BF42
:102150002046FEF7C9F800BFBEE710480068D0F877
:102160008C00401C0D490968C1F88C000D480068BE
:10217000401C0C490860FEF726FA00BF2046FEF717
:10218000B3F800BF00BFA7E7B0000220A8000220FC
:10219000D6000220CB000220E827022040010220C6
:1021A0003C010220F80002202DE9F04104460D46D2
:1021B0001646002700BF00BFFEF792F8074600BF93
:1021C000FEF7D6FA00BF114820606560002020624B
:1021D000606284F82800E06204F1080001F097FCD6
:1021E000204601F073FB0A480088401C084908801B
:1021F00000BFFEF7D7FA00BF3846FEF775F800BFFC
:1022000000BF00203080BDE8F08100004D555458DB
:10221000C80002202DE9F04788B00546884691465F
:102220001C46109E4FF0000A72492868884205D06B
:1022300045F6C450308008B0BDE8F0870CB10020EE
:10224000206000BF00BFFEF74BF8824600BFFEF7DC
:102250008FFA00BF95F82800C8B96748006868621F
:10226000012085F828000CB1E86A20602946624800
:10227000006801F043FB00BFFEF794FA00BF504630
:10228000FEF732F800BF00BF00203080D3E75A4984
:10229000686A0968884225D195F82800FF280CD182
:1022A00000BFFEF77FFA00BF5046FEF71DF800BFE3
:1022B00000BF45F284703080BDE795F82800401CCF
:1022C00085F828000CB1E86A206000BFFEF76AFAC2
:1022D00000BF5046FEF708F800BF00BF45F282700D
:1022E0003080A8E709F4004060B100BFFEF75AFA59
:1022F00000BF5046FDF7F8FF00BF00BF46F2B01028
:10230000308098E73D48007800280CDD00BFFEF7DC
:1023100049FA00BF5046FDF7E7FF00BF00BF46F691
:102320006350308087E76F6A97F837003249096851
:1023300091F83710884206DD2F48006890F8371072
:10234000384601F0D7FF434604222946684601F08B
:1023500039FB00BFFEF726FA00BF5046FDF7C4FF69
:1023600000BF00BF00F00AF900BF00BFFDF7B8FFD3
:10237000824600BFFEF7FCF900BF1F48006890F8D6
:10238000350030B101280CD002281AD0032821D101
:1023900010E01CB118480068806C2060002030807C
:1023A0001CE01CB114480068806C206046F2A91043
:1023B000308013E00CB10020206047F2D92030803B
:1023C0000CE01CB10C480068806C206045F6C250DF
:1023D000308003E046F62E60308000BF00BF00BFB3
:1023E000FEF7E0F900BF5046FDF77EFF00BF00BFDB
:1023F00000BF20E74D5554583C010220D600022072
:102400002DE9F84F04468A4615464FF0000B58490F
:102410002068884204D045F6C4502880BDE8F88F73
:1024200000BF00BFFDF75CFF834600BFFEF7A0F9C9
:1024300000BF5049606A096888420CD000BFFEF7AF
:10244000B1F900BF5846FDF74FFF00BF00BF45F28E
:1024500081702880E2E7FEF719FA80462834C4F834
:1024600004802078401E207014F8280900280CDD14
:1024700000BFFEF797F900BF5846FDF735FF00BFD4
:1024800000BF45F283702880C8E7214639480068BC
:1024900001F07EFA04F10809B9F8080078B90020C3
:1024A000606284F8280000BFFEF77CF900BF584640
:1024B000FDF71AFF00BF00BF00202880AEE72D48BF
:1024C000006890F837002B49096891F83810884265
:1024D00028D02848006801F045FA064625480068DB
:1024E00090F83810B14204DA2248006890F83800B9
:1024F00000E0304606461F48006890F83700B042BA
:1025000010DA1C48006801F0ADFC1A48006880F839
:102510003760304601F010FC1648006801F084FC7A
:1025200015480670D9F8000087686762012084F8B2
:1025300028002146384601F0E1F900231A463946C1
:102540002046CDF8008001F055FB00BFFEF72AF9C8
:1025500000BF5846FDF7C8FE00BF00BF0AF40040A8
:1025600008B900F00BF80020288000BF56E70000F3
:102570004D5554583C010220CA00022010B50024D9
:1025800020480078002800DD10BD1F480078002892
:1025900000DDF9E700BFFDF7A3FE044600BF01F030
:1025A000ABFB1A4908700846007800EB4000184958
:1025B00051F8200017490860084600681649096864
:1025C000884205D100BF2046FDF78EFE00BFDBE745
:1025D00010480068D0F88C00401C0E490968C1F80A
:1025E0008C000E480068401C0C490860FDF7E6FFAF
:1025F00000BF2046FDF778FE00BFBFF36F8F00BF1E
:10260000C2E70000A8000220D6000220CB00022072
:10261000E8270220400102203C010220F8000220AD
:1026200070B50446002515480078012803D045F60A
:102630008960208070BD12480078FA2803DB45F2DB
:1026400009202080F6E700BF00BFFDF749FE0546E0
:1026500000BFFEF78DF800BF09480078401C08490C
:10266000087000BFFEF79EF800BF2846FDF73CFE4D
:1026700000BF00BF0020208000BFDBE7B0000220C9
:10268000D600022070B5044600251E4800780128B7
:1026900003D045F68960208070BD1B48007818B9CA
:1026A00046F664502080F7E700BF00BFFDF718FE34
:1026B000054600BFFEF75CF800BF13480078401ED7
:1026C000114908700846007800280CDD00BFFEF7AD
:1026D00069F800BF2846FDF707FE00BF00BF46F6B9
:1026E00063502080D8E700BFFEF75CF800BF2846A3
:1026F000FDF7FAFD00BF00BFFFF740FF002020807C
:1027000000BFC9E7B0000220D600022010B5044681
:1027100012480078E8B901F0EFFA1149087008464C
:102720000078104908700E48007800EB40000E4910
:1027300051F820000D490860084600680C490860FF
:10274000012006490870FDF7FBFE43F69920208022
:1027500002E045F68A60208010BD0000B000022033
:10276000CB000220CA000220E827022040010220FC
:102770003C0102202DE9F04107464FF0000800BF60
:1027800000BFFDF7ADFD804600BFFDF7F1FF00BFC4
:102790000020424908804249086042490860424995
:1027A0000860424908604249088100BFFDF7FAFF0E
:1027B00000BF4046FDF798FD00BF00BF00BF00BF4F
:1027C000FDF78EFD804600BFFDF7D2FF00BF394800
:1027D000046800BFFDF7E6FF00BF4046FDF784FD3B
:1027E00000BF00BF25E000BF00BFFDF779FD8046B8
:1027F00000BFFDF7BDFF00BF00207434E063206020
:102800002063A061A082E0826062A062FEF73EF8D1
:102810002062743C04F160060020B081D4F8B84016
:1028200000BFFDF7BFFF00BF4046FDF75DFD00BFE5
:1028300000BF002CD7D100BF00BFFDF751FD80467F
:1028400000BFFDF795FF00BF1B48056800BFFDF7FF
:10285000A9FF00BF4046FDF747FD00BF00BF16E0DF
:1028600000BF00BFFDF73CFD804600BFFDF780FFC5
:1028700000BF05F120060020B081AD6900BFFDF763
:1028800091FF00BF4046FDF72FFD00BF00BF002DA8
:10289000E6D100203880BDE8F0810000E20002208F
:1028A000F4000220080102202C010220AC000220CA
:1028B000DC270220FC000220D0000220F8B50446EC
:1028C00000266946364800F0E9FCBDF8000018B162
:1028D000BDF800002080F8BD6A460021022000F00B
:1028E00045FDBDF8000018B1BDF800002080F2E7FA
:1028F00000BF00BFFDF7F4FC064600BFFDF738FF40
:1029000000BF00202749086000BFFDF74BFF00BF54
:102910003046FDF7E9FC00BF00BF002522480068F3
:1029200022490968884205D91F4800681F4909687B
:10293000B0FBF1F525B91C4800680A21B0FBF1F5A0
:102940006A460021284600F011FD6946144800F04F
:10295000C7F9BDF8000018B1BDF800002080BAE743
:1029600000BF00BFFDF7BCFC064600BFFDF700FF3F
:1029700000BF00200E4908600A4800680D49086041
:1029800001200D49087000BFFDF70CFF00BF304665
:10299000FDF7AAFC00BF00BF0020208000BF9AE71F
:1029A000982C0220E4000220705E0008585E0008A7
:1029B000F4000220E8000220F000022010B50348D5
:1029C000006810B101480068804710BD98000220DF
:1029D0002DE9FF4F85B004469146DDF854B0DDE99E
:1029E00012A5199E00200290BAF13F0F09D1464866
:1029F000844206D046F273211A98018009B0BDE8DE
:102A0000F08F204601F036FD00211A98018006F073
:102A1000010088B106F0020070B1A84600200490C1
:102A200007E00020C8F8000008F104080498401CE2
:102A3000049004985845F4D3149805EB8000039053
:102A4000CDE900B62A464846039B089900F0C4FA2F
:102A50008046C4F828900898E0620698206284F8BE
:102A600037A084F838A0C4F800800398A0601898B4
:102A700060606562C4F840B0A4F84460002706E0D6
:102A8000002104F1780040F82710781CC7B2002F0D
:102A9000F6D004F16000169900F010FF204600F017
:102AA00039F800BF00BFFDF71BFC029000BFFDF727
:102AB0005FFE00BF94F8370001F03EF9204601F0B8
:102AC000B3F9204601F08CFC10480088401C0F49E7
:102AD00008800F480078012809D000BFFDF762FE8A
:102AE00000BF0298FDF700FC00BF00BF86E700BFF3
:102AF000FDF758FE00BF0298FDF7F6FB00BF00BFD0
:102B0000FFF73CFD00BF79E71C27022000010220EF
:102B1000B000022010B504460348006818B12046F2
:102B200001490968884710BD880002202DE9F0415D
:102B300004460E464FF000086048844204D147F234
:102B40004C103080BDE8F0819CB900BF00BFFDF79C
:102B5000C7FB804600BFFDF70BFE00BF5848046866
:102B600000BFFDF71FFE00BF4046FDF7BDFB00BFE5
:102B700000BF00BF00BFFDF7B3FB804600BFFDF7FD
:102B8000F7FD00BF94F83600082860D2DFE800F0B7
:102B900004090E10080A0F11204601F063F963E0E2
:102BA00062E000BF204601F097FF5DE000BF00BF7C
:102BB00000BF94F8340008283BD2DFE800F0040797
:102BC00005080E090A0600BF00BF33E000BF00BFC2
:102BD00000BF204600F0D3FF2CE0206BC068456AA0
:102BE00015F8377F204600F0CAFF28786978373D0E
:102BF000884212D095F8370094F8371088420CD1EB
:102C0000284600F0AFFE074695F83800B84202DAD1
:102C100095F8380000E038460746002084F8340074
:102C200095F83700B84203D03946284601F062FBD8
:102C300000E000BF00BF94F83600032803D094F8EA
:102C40003600072802D1204601F046FF0CE000BF05
:102C5000FDF7A8FD00BF4046FDF746FB00BF00BFE3
:102C600046F62D6030806DE700BFE06B10B1204666
:102C700000F048FE04F1600000F0FEFD204600F088
:102C800023F8204601F0C4FB0E480088401E0D4981
:102C90000880204601F0EEFBFF2084F8360000BFDC
:102CA000FDF780FD00BF4046FDF71EFB00BF00BFE3
:102CB00000203080FFF762FC00BF43E71C270220A2
:102CC0003C0102200001022010B5044603480068C0
:102CD00018B1204601490968884710BD8C000220C0
:102CE00070B504460D46002600BF00BFFDF7F8FA98
:102CF000064600BFFDF73CFD00BF00BFFDF752FDDB
:102D000000BF3046FDF7F0FA00BF00BF294620465D
:102D100001F012FC70BD000010B5044603480068C5
:102D200018B1204601490968884710BD900002206B
:102D30002DE9F0470746884614461D464FF0000926
:102D40000CB10020206000BF00BFFDF7C9FA81462A
:102D500000BFFDF70DFD00BF65480068C06CC0B343
:102D600063480068C06C401E61490968C8646048D7
:102D70000068C66C1CB15E480068806C2060FDF77E
:102D800085FD5B490968896C401A59490968C1F891
:102D9000A00057480068D0F8A40055490968D1F848
:102DA000A010884207D252480068D0F8A0005049CD
:102DB0000968C1F8A40000BFFDF7F4FC00BF484655
:102DC000FDF792FA00BF00BF002028803046BDE822
:102DD000F087FFE708F4004068B100BFFDF7E2FCB0
:102DE00000BF4846FDF780FA00BF00BF46F2B010B2
:102DF00028800020EBE73F48007800280DDD00BF69
:102E0000FDF7D0FC00BF4846FDF76EFA00BF00BFDB
:102E100046F6635028800020D9E73B460722002170
:102E2000084600F0CFFD00BFFDF7BCFC00BF4846E0
:102E3000FDF75AFA00BF00BFFFF7A0FB00BF00BFBD
:102E4000FDF74EFA814600BFFDF792FC00BF28480F
:102E5000006890F8350020B1012826D0032834D12D
:102E60002CE0FCB122480068806C2060FDF70EFD6C
:102E70001F490968896C401A1D490968C1F8A000FA
:102E80001B480068D0F8A40019490968D1F8A010BF
:102E9000884207D216480068D0F8A0001449096893
:102EA000C1F8A4000020288013E01CB1104800687D
:102EB000806C206046F2A91028800AE00CB1002046
:102EC000206047F2D920288003E046F62E60288053
:102ED00000BF00BF06480068C66C00BFFDF762FC7B
:102EE00000BF4846FDF700FA00BF00BF30466EE75E
:102EF0003C010220D60002202DE9F04105460E4695
:102F00001446FDF7C3FC8046234642463146284618
:102F100001F0ACFB07463846BDE8F0812DE9F047EB
:102F200004460D4616461F464FF0000A00BF00BF7C
:102F3000FDF7D6F9824600BFFDF71AFC00BF0CB9B9
:102F400024480468206880B900BFFDF72BFC00BF4F
:102F50005046FDF7C9F900BF00BF0020286030606F
:102F600047F252103880BDE8F08794F8440000F032
:102F7000010078B900BFFDF715FC00BF5046FDF712
:102F8000B3F900BF00BF00202860306047F2541042
:102F90003880E8E700BFFDF705FC00BF5046FDF7AD
:102FA000A3F900BF00BF4FF00008D4F8249003E05D
:102FB00009F1040908F10108D9F800000028F7D048
:102FC000C5F80080206CA0EB08003060002038803D
:102FD00000BFC8E73C010220F0B50446DDE9055614
:102FE00002EB850020F007004FF0807C071F384679
:102FF000C7F800C0071F38463C60DFF834C2071F1F
:103000003846C7F800C04FF0123C071F3846C7F8D3
:1030100000C04FF0033C071F3846C7F800C04FF010
:10302000023C071F3846C7F800C0071F38463B6000
:10303000071F384639604FF0113C071F3846C7F864
:1030400000C04FF0103C071F3846C7F800C04FF0D3
:10305000093C071F3846C7F800C04FF0083C071F5F
:103060003846C7F800C04FF0073C071F3846C7F87E
:1030700000C04FF0063C071F3846C7F800C04FF0AD
:10308000053C071F3846C7F800C04FF0043C071F37
:103090003846C7F800C006F00407002F7ED04FF076
:1030A000007C071F3846C7F800C0DFF888C1071F3B
:1030B0003846C7F800C0DFF880C1071F3846C7F898
:1030C00000C0DFF878C1071F3846C7F800C0DFF836
:1030D00070C1071F3846C7F800C0DFF868C1071F76
:1030E0003846C7F800C0DFF860C1071F3846C7F888
:1030F00000C0DFF858C1071F3846C7F800C0DFF826
:1031000050C1071F3846C7F800C0DFF848C1071F85
:103110003846C7F800C0DFF840C1071F3846C7F877
:1031200000C0DFF838C1071F3846C7F800C0DFF815
:1031300030C1071F3846C7F800C0DFF828C1071F95
:103140003846C7F800C0DFF820C1071F3846C7F867
:1031500000C0DFF818C1071F3846C7F800C04FF09D
:10316000834C071F3846C7F800C0DFF804C1071FAB
:103170003846C7F800C0DFF8FCC0071F3846C7F85C
:1031800000C0DFF8F4C0071F3846C7F800C0DFF8FA
:10319000ECC0071F3846C7F800C000E047E0DFF882
:1031A000E0C0071F3846C7F800C0DFF8D8C0071FC7
:1031B0003846C7F800C0DFF8D0C0071F3846C7F848
:1031C00000C04FF0824C071F3846C7F800C0DFF838
:1031D000BCC0071F3846C7F800C0DFF8B4C0071FDF
:1031E0003846C7F800C0DFF8ACC0071F3846C7F83C
:1031F00000C04FF0814C071F3846C7F800C0DFF809
:1032000098C0071F3846C7F800C04FF0804C071F12
:103210003846C7F800C04FF07E5C071F3846C7F835
:1032200000C04FF0000C071F3846C7F800C0F0BDC3
:10323000554600080000F8410000F0410000E84158
:103240000000E0410000D8410000D0410000C8412A
:103250000000C0410000B8410000B0410000A8419A
:103260000000A0410000984100009041000088410A
:1032700000007041000060410000504100004041EA
:103280000000304100002041000010410000E040FB
:103290000000C0400000A0400000404070B505465E
:1032A0000C460648854203D147F25B10208070BD72
:1032B0002146284601F0D2FA00BFF8E71C27022079
:1032C00070B52748006890F8440000F0040020B171
:1032D000234909680868FDF71DF92248006890F83D
:1032E000440000F0040020B11E4909680868FDF799
:1032F0001EF91D48006810B11B4800688047FDF7A3
:10330000C5FA04461648006816490968884215D06F
:1033100013480068D0F89400201A11490968C1F8D0
:1033200090000F480068D0F898000D490968D1F85E
:10333000901008440A490968C1F8980009480068D3
:10334000C0F89440FDF7E8F9054605480068D0F854
:10335000B000A84203D202480068C0F8B05070BD67
:103360003C010220400102209C0002202DE9F04196
:1033700005460E461446002726480078002804DD3E
:1033800046F663502080BDE8F08136B1022E05D0AC
:10339000042E0AD0082E09D101E000BF00BF1DB9DC
:1033A00047F27E202080EEE704E003E045F625604A
:1033B0002080E8E700BF00BF00BFFCF791FF074691
:1033C00000BFFDF7D5F900BF234632462946124813
:1033D000006801F023FB208848B100BFFDF7E2F947
:1033E00000BF3846FCF780FF00BF00BFCBE70A48AC
:1033F000006800F037FD00BFFDF7D4F900BF384684
:10340000FCF772FF00BF00BFFFF7B8F80020208074
:1034100000BFB8E7D60002203C0102202DE9F84F9A
:1034200006460F46904699460B9C002000903D486A
:103430000078002804DD46F663502080BDE8F88F50
:103440000A9800F00E0ABAF1000F09D0BAF1020F83
:1034500007D0BAF1040F12D0BAF1080F10D101E071
:1034600000BF00BFB9F1000F08D1B8F1000F05D1BE
:1034700027B91EB947F27E202080DFE704E003E091
:1034800045F625602080D9E700BF274805684FF43E
:10349000FA70B0FBF5F0484468434FF47A71B0FB22
:1034A000F1F14FF461607043C7EB071200EB82004B
:1034B000404400FB051BBBF1000F2DD000BF00BF37
:1034C000FCF70EFF009000BFFDF752F900BF234646
:1034D000524659461548006801F0A0FA208848B1C4
:1034E00000BFFDF75FF900BF0098FCF7FDFE00BFCD
:1034F00000BFA3E70D48006800F0B4FC00BFFDF773
:1035000051F900BF0098FCF7EFFE00BF00BFFFF7C6
:1035100035F80020208002E047F27E20208000BFA6
:103520008CE70000D6000220705E00083C010220FB
:1035300008B500F01FF86A4600210A48FFF7DCFCD6
:1035400009480068401E084908600846006838B904
:103550000648006808606A4600210548FFF7CCFC71
:1035600008BD0000A82B02203801022034010220EF
:10357000982C022010B50348006810B1014800687B
:10358000804710BDA0000220244A2549254A264A2A
:103590002649274A2748284A284A294A294A2A48A0
:1035A0002A482B4A2B482C4A2C482D4A2D482E4875
:1035B0002E482F482F4A304A304A3148314A324A41
:1035C0003248334833483448344835483548364A19
:1035D000364A374A374A384838483948394A3A4AE1
:1035E0003A4A3B483B483C483C493D483D4A3E4AB4
:1035F0003E4A3F4A3F4A404A404A4148414A424A7D
:1036000042484348434A444A4448454A454A464852
:10361000464800BF00BF00BF70470000A45E00081E
:103620000C600008A55E0008A65E0008A85E000801
:10363000AC5E0008B05E0008AD5E0008D85E000811
:10364000D95E0008DA5E0008DC5E0008DE5E000875
:10365000E25E0008E45E0008045F0008065F000800
:10366000085F00080A5F00080C5F00080E5F000892
:10367000105F0008405F0008415F0008425F0008DB
:10368000445F0008465F0008475F0008485F000885
:103690004A5F00084C5F00084E5F0008505F00085A
:1036A000525F0008545F0008845F0008855F0008CF
:1036B000865F0008875F0008885F00088A5F00084F
:1036C0008C5F0008B45F0008B55F0008B65F0008B3
:1036D000B75F0008B85F0008BA5F0008BC5F000869
:1036E000C05F0008C15F0008C25F0008C35F000838
:1036F000C45F0008C55F0008C65F0008C75F000818
:10370000C85F0008CA5F0008CB5F0008CC5F0008F4
:10371000CE5F0008D05F0008D15F0008D45F0008CA
:1037200004600008056000080660000808600008E2
:103730000021034A1160034A118001807047000094
:10374000B4000220B800022000241DE000BF00BF2A
:10375000FCF7C6FD044600BFFDF70AF800BF0B48A2
:103760000068401C0949086009480068401C084975
:10377000086000BFFDF716F800BF2046FCF7B4FD57
:1037800000BF00BFFEF7C8FBE0E70000A400022076
:10379000E400022010B58AB0044600200E490860FB
:1037A0000B2000210591CDE90704069108460B493D
:1037B00009680B4A12680B4B1B68CDE90132CDE951
:1037C00003103F200023084A08A100900C48FFF78F
:1037D000FFF80AB010BD0000A4000220185E000827
:1037E000145E0008105E00084937000875432F4F2B
:1037F000532D4949492049646C65205461736B001D
:103800001C2702200021034A1160034A1180018015
:1038100070470000BC000220C000022070B50246C4
:10382000124D286829681031114D2D886D1EACB2DB
:10383000002308E00160002545600581C560103067
:1038400010315D1CABB2A342F4DB0025056045607E
:103850000581C560054D2D68064E3560044D2D88E7
:10386000B5800025F5803581158070BD505E00085B
:10387000485E0008DC27022010B5014648894B89C4
:10388000002B17DD0A680C4B1B6813600A4C4B6851
:1038900023602346DB884C891B1B074CE3802346AF
:1038A0009B884C892344044CA38000234B818B814B
:1038B0000B604B6010BD0000DC270220018100225C
:1038C00042818281026042607047000009A1C161AB
:1038D000002141610849096811B90021816105E0B1
:1038E000054909688161044909684861024908601D
:1038F0007047000020000000C4000220C26B0A6272
:10390000C16370472DE9F8430546EC6B26E0D4F817
:103910002090FCF7BBFF0646E6622146284600F0F1
:1039200037F804F10808B8F8080020B9002084F836
:103930002800606211E0D8F8000087686562012005
:1039400084F8280021463846FFF7D8FF00231A469E
:1039500039462046009600F04DF94C46002CD6D151
:10396000BDE8F88330B504463F2004F13C010BE08C
:103970000D68AB682BB19D6895F83720824200DA5C
:1039800010460D6805F120010D68002DF0D130BD05
:10399000024602F13C0002E0036803F120000368E4
:1039A0008B42F9D103681B6A036070470021034A08
:1039B0001160034A1180018070470000C40002209A
:1039C000C80002202DE9F04105460C4616461F4668
:1039D0001548006880F8346000201349096881F8B0
:1039E000350039461048006800F06EFC6CB104F1F7
:1039F0000808EC60012229460B48006800F016F820
:103A00002946404600F088F807E00020064909688A
:103A1000A1F8460004490968086303480168204684
:103A200000F018F8BDE8F0813C01022010B5A0F8C4
:103A30004620016300230AE000244C600C600C6106
:103A40004C610C83CC61886020315C1CA3B2934232
:103A5000F2DB10BD30B548B14568C1F8BC5000F18B
:103A60000804226893681D6AC56113E091F8345018
:103A7000022D02D0072D08D103E007A5C1F8BC50E4
:103A800007E007A5C1F8BC5003E008A5C1F8BC5089
:103A900000BF00BF30BD00005461736B20510000B7
:103AA0005461736B2053656D00000000200000001E
:103AB00030B507A5C1F8BC5000F1080422681AB15E
:103AC00093681D6AC56101E001A5C56130BD0000B4
:103AD000200000002DE9F0410446256BB4F8467043
:103AE00011E0D5F80C8008F108063089012807D9C3
:103AF0002946304600F05DF82946304600F00CF8C3
:103B00002035781E87B2002FEBD1BDE8F08100216F
:103B10000160416001817047F0B58E6896F83750BA
:103B200007893FB90127078100274F600F600160B7
:103B3000416023E007897F1C0781026806E09468E2
:103B400094F83770AF4200DD02E05268002AF6D1E7
:103B500000BF32B900274F6043680B605960416075
:103B60000CE017682FB9116000270F604A600160F0
:103B700004E013680B604A6059601160F0BD2DE9E4
:103B8000F0410446256BB4F846600AE0D5F80C8095
:103B900008F108072946384600F00BF82035701E5A
:103BA00086B2002EF2DC0020A4F846002063BDE8B7
:103BB000F08110B50489012C03D100240460446015
:103BC00011E00C6824B94A680024146002600AE01D
:103BD0004C6824B90B6800245C60436003E00B6808
:103BE0004A685A6013600489641E048100244C6092
:103BF0000C6010BD2DE9F84306460C461746984662
:103C0000089D94F8360008285BD2DFE800F0040530
:103C100008090607323300BF00BF00BF52E000BFF3
:103C200094F83400032807D143463A4621463046EB
:103C3000009500F04AF803E0A765A4F85C80A5644D
:103C400036B12046FFF79BFF21463046FFF730FF95
:103C500094F83600032802D1204600F03DFF2046AC
:103C600000F0ACF800203434A070607004F834091F
:103C700028E000BF94F83400032807D143463A46B1
:103C800021463046009500F020F803E0A765A4F82F
:103C90005C80A56436B12046FFF771FF21463046AF
:103CA000FFF706FF94F83600072802D1204600F0FF
:103CB00013FF04203434A0700020607004F834092D
:103CC00000E000BF00BFBDE8F883F0B50446059EE4
:103CD000086BB1F846500AE0C768A74204D10461F6
:103CE00042610383C66104E020306F1EBDB2002D27
:103CF000F2DC00BFF0BD000070B50025074C03E00A
:103D000005F12000C5B2241D20680028F8D02068E5
:103D1000FCF7F1FA2844C5B2284670BD80000220A5
:103D2000002004E00021034A42F82010401C022831
:103D3000F8D370478000022030B5420900F01F031D
:103D40000121C3F11F04A140034C54F822400C434D
:103D5000014D45F8224030BD8000022030B54209B7
:103D600000F01F030121C3F11F04A140034C54F8CC
:103D700022408C43014D45F8224030BD8000022096
:103D80000021034A1160034A11800180704700003E
:103D9000D0000220D400022000210AE001EB410201
:103DA000054B03EB820000220281026042604A1C44
:103DB000D1B24029F2D37047E827022010B504465B
:103DC00094F83700FFF7B8FF94F8370005490978F1
:103DD000884203D1204600F027F802E0204600F098
:103DE00003F810BDCA00022010B590F8373003EB7D
:103DF00043030C4C04EB83010B893BB901230B817A
:103E00000023C36003610860486009E00B895B1C04
:103E10000B810B68C360002303610A6810610860AE
:103E200010BD0000E827022010B590F8373003EBF2
:103E300043030B4C04EB83010B893BB901230B813A
:103E40000023C36003610860486008E00B895B1CC5
:103E50000B810023C3604A680261D060486010BDD6
:103E6000E82702202DE9F041054695F8370000EBE0
:103E70004000124901EB80042F69EE6887B946B90A
:103E8000002020812060606095F83700FFF766FF12
:103E90000EE02089401E208100203061266007E06E
:103EA0002089401E2081FE600EB9676000E0376106
:103EB00000202861E860BDE8F0810000E8270220CA
:103EC0000021034A1160034A1180018070470000FD
:103ED000D8000220DC00022086B00020009006E01E
:103EE000B6490968480001AA0021FFF73FFAB44823
:103EF00000780128F4D101A8FEF73CFC0027B14866
:103F00000068AE490968884205D9AE480068AB49E7
:103F10000968B0FBF1F727B9AA4800680A21B0FB8D
:103F2000F1F749E1FCF7B2FC8246FCF70BFCA6492D
:103F3000086000BF00BFFCF7D3F9009000BFFCF79A
:103F400017FC00BFA1480068A149086000209F49F4
:103F5000086000BFFCF726FC00BF0098FCF7C4F91E
:103F600000BF00BF9B48006899490968884248D94A
:103F7000984800689849884205D242F21070039030
:103F80000120029023E0934800689449884205D2BA
:103F90004FF47A7003900A20029018E08D48006870
:103FA0008F49884203D26420039002900FE0894831
:103FB00000688C49884205D20A2003904FF47A7039
:103FC000029004E00120039042F2107002908148B8
:103FD00001680298B1FBF0F97D49039809684843EC
:103FE000B0FBF9F042F21071081A7F4908807F484F
:103FF00000880988884207DA7B4800887B49088066
:1040000002E0002078490880FEF7D8FC002500BFB8
:1040100000BFFCF765F9009000BFFCF7A9FB00BFEB
:104020007348046800BFFCF7BDFB00BF0098FCF7B5
:104030005BF900BF00BF2EE000BF00BFFCF750F9E6
:10404000009000BFFCF794FB00BF54F8980F60602D
:10405000002044F8980900BFFCF7A4FB00BF0098BB
:10406000FCF742F900BF00BFD4F89C00054400BF34
:1040700000BFFCF735F9009000BFFCF779FB00BFEB
:10408000D4F8B84000BFFCF78DFB00BF0098FCF7E8
:104090002BF900BF00BF002CCED145B34E4885425E
:1040A00005D242F2107005904FF0010B1BE04B4817
:1040B000854205D24FF47A7005904FF00A0B12E05A
:1040C0004748854203D26420059083460BE045486B
:1040D000854204D20A2005904FF47A7B03E0012048
:1040E000059042F2107BB5FBFBF0049003E000204A
:1040F00005900120049000BF00BFFCF7F1F800908C
:1041000000BFFCF735FB00BF3948046800BFFCF76F
:1041100049FB00BF0098FCF7E7F800BF00BF2FE0A5
:10412000D4F89C00059948430499B0FBF1F086B29D
:1041300042F21070864200D90646A4F88860B4F8AE
:104140008A00B04201DAA4F88A6001AB04F1A80247
:10415000111D2046FEF7E2FE00BF00BFFCF7C0F8CD
:10416000009000BFFCF704FB00BFD4F8B84000BFCC
:10417000FCF718FB00BF0098FCF7B6F800BF00BFC3
:10418000002CCDD11B480078012805D10020194909
:10419000087001A8FEF7EEFAFCF778FBA0EB0A081E
:1041A00015480068404502D21348C0F8008001AAB3
:1041B00000213846FFF7DAF8B4E60000585E000840
:1041C000F0000220705E0008AC000220E400022033
:1041D000EC000220E8000220801A060000093D00E1
:1041E000005A62020084D717E0000220E200022099
:1041F000FC000220DE000220F400022010B58AB08C
:10420000044600201F4908601F4908601F490860D4
:104210001F4908701F4908701F48006820B946F6FA
:104220002B6020800AB010BD1C4800681C4909683A
:10423000884203D246F62C602080F3E719480078C4
:104240003F2803D346F62A602080EBE703200021B5
:104250000591CDE907040691084610490968124AFC
:1042600012680D4B1B68CDE90132CDE903100D48F2
:10427000007800230D4A0EA100901248FEF7A8FB1B
:1042800000BFCFE7E4000220EC000220E80002209B
:10429000F0000220DE0002205C5E0008645E000880
:1042A0006C5E0008545E0008605E0008D93E00089D
:1042B00075432F4F532D494949205374617420543D
:1042C00061736B00E82A022070B504460D4645B1C3
:1042D0002A462146064800F05DFB032084F836009C
:1042E00002E0022084F836002046FFF7BBFD70BDD7
:1042F000140102202DE9F04104460D4600BF0026BE
:1043000094F8377094F8360008285FD2DFE800F0A0
:1043100004191E1F1A1B20212046FFF7A3FD84F855
:10432000375094F83700FFF707FD2C4800688442A7
:1043300003D12046FFF758FD02E02046FFF774FD49
:1043400046E000BF00BF84F8375041E000BF00BF27
:1043500000BF84F8375094F83400082831D2DFE8E1
:1043600000F0300431050B06073200BF00BF00BF6C
:104370002046FFF7AFFB27E02046FFF7ABFB206BA3
:10438000C068466AAF4205DD96F83700A84217DCE0
:10439000002615E096F83700B84211D13046FFF7F5
:1043A000E1FA054696F83800A84202DA96F8380095
:1043B00000E02846054696F83700A84200D10026BE
:1043C00002E000BF00BF00BF00BF01E0BDE8F08118
:1043D00000BF3446002C92D100BFF7E73C01022019
:1043E0000021C0F8B4100949096819B90021C0F8C2
:1043F000B81007E005490968C0F8B8100349096812
:10440000C1F8B4000149086070470000FC000220B8
:10441000D0F8B420D0F8B8104AB90D4B196011B1DA
:104420000023C1F8B4300023C0F8B8300FE029B938
:104430000023C2F8B830C0F8B43008E0C2F8B810B1
:10444000C1F8B4200023C0F8B830C0F8B4307047C9
:10445000FC0002200021044A1160044A1180044A31
:104460001160018070470000FC0002200001022062
:10447000F800022070B5044600202060A060606053
:10448000E06020616061A061E06128A020620020FE
:104490006062A062E0622063A4F84600A064A065A8
:1044A000A4F85C00002104F16000FFF707FA002087
:1044B00020676067E067A4F88400C4F880000025E6
:1044C00006E0002104F1780040F82510681CC5B210
:1044D000002DF6D000203434A061E0662067E06053
:1044E00084F85200A06760672082E0612062A4F82F
:1044F0005400A4F85600A065E065FCF7C7F906462D
:10450000266600206066E06720706070A070402022
:10451000E07020710020A060C4F88000C4F884001E
:1045200004A0C4F88800343C70BD00003F5461739F
:104530006B0000002000000070B504460D46002608
:1045400000BF00BFFBF7CCFE064600BFFCF710F92A
:1045500000BF0020288094F83600082868D2DFE8E1
:1045600000F004050607142B3F5300BF00BF00BF37
:1045700000BFFCF717F900BF3046FBF7B5FE00BFE0
:1045800000BF47F2531028805FE014F8860F401EEA
:10459000207014F8860928B9002084F836002046D7
:1045A000FFF70CFC00BFFCF7FDF800BF3046FBF73F
:1045B0009BFE00BF00BF48E014F8860F401E20702D
:1045C00014F8860910B9012084F8360000BFFCF702
:1045D000E9F800BF3046FBF787FE00BF00BF34E0BC
:1045E00014F8860F401E207014F8860910B90220B6
:1045F00084F8360000BFFCF7D5F800BF3046FBF763
:1046000073FE00BF00BF20E014F8860F401E20702C
:1046100014F8860910B9032084F8360000BFFCF7AF
:10462000C1F800BF3046FBF75FFE00BF00BF0CE0E3
:1046300000BFFCF7B7F800BF3046FBF755FE00BFE0
:1046400000BF46F62D60288070BD00BFFDF796FFC5
:1046500000BFF9E708B504480068FEF75DFB69464E
:104660000020FEF763FA08BD3C0102202DE9F84363
:104670000446884617461D464FF0000900BF00BF9C
:10468000FBF72EFE814600BFFCF772F800BF0CB9A5
:1046900071480468A7640020288094F83600082830
:1046A00078D2DFE800F00405585906075A5B00BFCE
:1046B00000BF00BF0420012804D0022815D0042820
:1046C00039D126E0E06CFF280ED100BFFCF76AF874
:1046D00000BF4846FBF708FE00BF00BF46F6C550C6
:1046E00028800020BDE8F88326E04FF6FF71E06CDB
:1046F00088420DD100BFFCF755F800BF4846FBF7D4
:10470000F3FD00BF00BF46F6C55028800020E9E752
:1047100012E0E06C401C68B900BFFCF743F800BF32
:104720004846FBF7E1FD00BF00BF46F6C5502880B4
:104730000020D7E700E000BF00BFE06C401CE06451
:10474000E66C00BFFCF72EF800BF4846FBF7CCFD37
:1047500000BF00BF7DE000BF00BF00BF94F8340081
:10476000072818D100231A46214618460097FFF75C
:1047700041FAE66C00BFFCF715F800BF4846FBF7AE
:10478000B3FD00BF00BF08F40040002852D1FDF780
:10479000F5FE4FE04FE00420012804D0022814D099
:1047A000042838D125E0E06CFF280DD100BFFBF7CD
:1047B000F9FF00BF4846FBF797FD00BF00BF46F674
:1047C000C550288000208DE726E04FF6FF71E06C91
:1047D00088420DD100BFFBF7E5FF00BF4846FBF75D
:1047E00083FD00BF00BF46F6C5502880002079E752
:1047F00012E0E06C401C68B900BFFBF7D3FF00BFBC
:104800004846FBF771FD00BF00BF46F6C550288043
:10481000002067E700E000BF00BFE06C401CE064E0
:10482000E66C00BFFBF7BEFF00BF4846FBF75CFD30
:1048300000BF00BF0DE000BFFBF7B4FF00BF48465C
:10484000FBF752FD00BF00BF46F62D602880002612
:1048500000BF00BF304645E73C01022070B504466A
:104860000D46002600BF00BFFBF73AFD064600BF1D
:10487000FBF77EFF00BF0CB944480468434800685A
:10488000844210D14248007800280CDD00BFFBF7BD
:1048900089FF00BF3046FBF727FD00BF00BF46F68B
:1048A0006350288070BD0020288094F836000828C6
:1048B0005AD2DFE800F0041727374748494A042056
:1048C00084F83600012084F886002046FFF7CAFAF3
:1048D00000BFFBF767FF00BF3046FBF705FD00BFD9
:1048E00000BF4EE0052084F83600012084F88600E1
:1048F00000BFFBF757FF00BF3046FBF7F5FC00BFDA
:1049000000BF3EE0062084F83600012084F88600CF
:1049100000BFFBF747FF00BF3046FBF7E5FC00BFD9
:1049200000BF2EE0072084F83600012084F88600BE
:1049300000BFFBF737FF00BF3046FBF7D5FC00BFD9
:1049400000BF1EE000BF00BF00BF94F88600401CFF
:1049500084F8860000BFFBF725FF00BF3046FBF759
:10496000C3FC00BF00BF0CE000BFFBF71BFF00BF94
:104970003046FBF7B9FC00BF00BF46F62D6028802B
:1049800090E700BFFDF7FAFD00BF8BE73C01022076
:10499000D600022070B51546066846B90D6500269A
:1049A0004E618E61C86101600126868033E0046833
:1049B00002682B4624E0166D9E421DD396696EB99F
:1049C0000B6500268E614A61C861166DF61A166580
:1049D000916101608688761C86800CE094690B6585
:1049E0008C614A61C861166DF61A16659161616144
:1049F0008688761C868070BD166D9B1B1446526996
:104A0000002AD8D10B658C6100264E61C8616161B6
:104A10008688761C868000BFEDE700002DE9F04116
:104A200004460D4690461F46B8F1040F0ED12848A3
:104A300000682E1A16F5803F01D8002E3CD10020C8
:104A4000206547F27E203880BDE8F081B8F1080F7C
:104A500029D11F49606D0968081AA84205D92E4658
:104A60001B4800682844606526E01949606D0968A4
:104A7000081A2E1A16F5803F00D886B91449606DC1
:104A80000968081AB0FBF5F005FB0050616D084499
:104A900060650020206547F27E203880D4E7606D95
:104AA0002844606508E00DB12E4605E00020206531
:104AB00047F27E203880C7E7012084F8360032466E
:104AC00021460448FFF766FF0020388000BFBBE79F
:104AD000040102200C01022030B5C26983694169DA
:104AE000ABB929B90024146094800465C4611EE048
:104AF00000248C610C6D056D2C440C65116094884C
:104B0000641E9480002444610465C4610FE059610F
:104B100021B18B610C6D056D2C440C650024846102
:104B20009488641E9480002444610465C46130BD8F
:104B30002DE9F0474FF0000900BF00BFFBF7D0FBA5
:104B4000814600BFFBF714FE00BFFBF79FFE064641
:104B500000271E4D2C683CB3206D401E20651FE0D1
:104B6000781C87B294F83600012806D1002084F81A
:104B700036002046FFF722F906E094F836000528B3
:104B800002D1042084F83600606928602C6814B9CA
:104B90000020A88007E0A888401EA8800020A0610F
:104BA000206D0028DCD000BFEF80FBF76FFEA0EB8C
:104BB000060800BFFBF7F6FD00BF4846FBF794FB75
:104BC00000BF00BF4046BDE8F08700000C01022096
:104BD0002DE9F05F4FF0000B00BF00BFFBF780FB3B
:104BE000834600BFFBF7C4FD00BFFBF74FFE07463F
:104BF0004FF000083C4D2C68002C63D0206D401E07
:104C000020655BE008F101001FFA80F8002694F8A7
:104C10003400042802D1206BC068466A0020A065D9
:104C2000A4F85C00FBF732FEA0642046FEF7A7FF65
:104C300094F83600032806D12046FFF7BFF800207D
:104C400084F8360006E094F83600072802D10420E4
:104C500084F83600032084F83500002084F83400FE
:104C600006B396F8370096F8381088421AD096F8AE
:104C7000370094F83710884214D13046FEF772FEA0
:104C8000814696F83800484502DA96F8380000E088
:104C90004846814696F83700484503D04946304695
:104CA000FFF728FB606928602C6814B90020A880F1
:104CB00007E0A888401EA8800020A061206D002881
:104CC000A0D000BFA5F80680FBF7E0FDA0EB070A27
:104CD00000BFFBF767FD00BF5846FBF705FB00BFB1
:104CE00000BF5046BDE8F09F1401022008B5002720
:104CF0002CE06B46002211461046FEF719F8BDF86D
:104D0000000018BB00BF00BFFBF7EAFA074600BF70
:104D1000FBF72EFD00BF0E480068401C0C490860E0
:104D200000BFFBF73FFD00BF3846FBF7DDFA00BFD1
:104D300000BFFFF7FDFE0646FFF74AFF0546741960
:104D400004480068A04201D202480460D1E7000094
:104D5000040102200801022010B58AB00446002098
:104D60002049086020490860204908601E49888061
:104D7000C8801E498880C8801D48006820B947F255
:104D8000122020800AB010BD1A4800681A4909682C
:104D9000884203D247F213202080F3E717480078B7
:104DA0003F2803D347F211202080EBE70B2000219E
:104DB0000591CDE90704069108460E490A68104995
:104DC00009680B4B1B68CDE90131CDE903200B4885
:104DD000007800230B4A0CA100901048FDF7F8FD65
:104DE00000BFCFE7040102200C01022014010220C1
:104DF000785E0008805E00086C5E0008745E000843
:104E00007C5E0008ED4C000875432F4F532D494937
:104E100049205469636B205461736B00A82B0220F6
:104E200010B58AB0044600202F4908602F49086059
:104E30002F4908802F48006840B12F4800682D494D
:104E40000968B0FBF1F02D49086006E02A480068C7
:104E50000A21B0FBF1F02949086028480068284978
:104E6000086000202749086027490860224627A1DA
:104E70002A48FDF799F9208808B10AB010BD2848E2
:104E8000006818B947F247302080F6E725480068E7
:104E900025490968884203D247F248302080ECE770
:104EA000224800783F2803D347F246302080E4E7C9
:104EB0000B20002105910A46CDE907040691194807
:104EC00000681B490968164B1B68CDE90131CDE923
:104ED0000302164800780023164A17A100901C48C8
:104EE000FDF776FD00BFC8E71C0102202401022067
:104EF000200102208C5E0008705E00083401022050
:104F000038010220300102202C0102204F5320548E
:104F10006D72204D7574657800000000682C0220C9
:104F2000905E0008985E00086C5E0008885E0008CD
:104F3000945E00086D4F000875432F4F532D49496B
:104F4000492054696D6572205461736B0000000044
:104F5000982C02200EB502A801AB00221146009049
:104F60000148FDF757F90EBD682C02201CB53FE043
:104F700001AB6A4600210846FDF7DAFEFFF7EAFFBB
:104F8000FBF784FC06461B480068401C1949086072
:104F9000194804681FE001A8FDF742FBD4F810800F
:104FA000A069401EA061A06980B9A08C022802D12E
:104FB000206AA06105E0204600F022F8032084F872
:104FC0002600A56815B12046E168A847444601A817
:104FD000FDF758FB00BF002CDDD1FBF757FC871B0A
:104FE00006480068B84201D20448076000F02AF879
:104FF000BEE7000030010220240102202C01022023
:1050000010B50E4B1B68834206D101690B4B19602A
:1050100039B100234B6104E0416902690A6102B1C0
:105020005161012380F82630002303614361044B62
:105030001B885B1E024C238010BD0000240102204F
:105040002001022008B56A4600210248FDF7D8F980
:1050500008BD0000682C022010B50023234C2360FB
:1050600000BF00BF00BFBFF34F8F00BF00BF00BF36
:10507000231F1868C0F34E3100BFC0F3C90200BF40
:1050800043F6E07303EA41134FF0404404EA8274AC
:105090002343174C236000BF00BF131EA2F101027F
:1050A000EED10B1EA1F10101E7D100BF00BF00BF8F
:1050B000BFF34F8F00BF00BF00BF0C4B703B1B689E
:1050C00043F48033094C703C236000BF00BF00BF35
:1050D000BFF34F8F00BF00BF00BF00BF00BF00BFC6
:1050E000BFF36F8F00BF00BF00BF10BD84ED00E0B5
:1050F00060EF00E0704700002DE9F04194B00546F4
:10510000884616461F46002400BF2648006840F027
:105110008050244908600846006800F080500190E3
:1051200000BF00BF00BF2048006840F440401E4957
:1051300008600846006800F44040019000BF00BFCE
:10514000012007900004089002200D9041050E9167
:10515000CDF83C8010951196129707A8FBF7CCFF6D
:1051600004460CB100BFFEE7FBF718FE04460CB185
:1051700000BFFEE70F200290022003900020049061
:105180004FF4A05005904FF480500690072102A8DC
:10519000FBF74CFE04460CB100BFFEE714B0BDE8BF
:1051A000F0810000403802400070004010B5FBF76D
:1051B00065FD05480078012805D1FCF771FFFEF771
:1051C000B7F9FCF783FF10BDB00002201448006857
:1051D00040F47000124908601248006840F0010075
:1051E0001049086000200F49083108600D48006828
:1051F0000D4908400B4908600C48091D0860081F4C
:10520000006820F48020091F0860002005490C3147
:1052100008604FF000600249803908607047000064
:1052200088ED00E000380240FFFFF6FE1030002459
:1052300090F8241001F0010139B10168496821F4A6
:105240000031826A11430268516090F8241001F025
:10525000020139B10168496821F48031C26A114301
:105260000268516090F8241001F0040139B101681E
:10527000496821F48021026B11430268516090F863
:10528000241001F0080139B10168496821F4004196
:10529000426B11430268516090F8241001F0100134
:1052A00039B10168896821F48051826B1143026829
:1052B000916090F8241001F0200139B101688968EB
:1052C00021F40051C26B11430268916090F82410E0
:1052D00001F0400199B10168496821F48011026C24
:1052E000114302685160016CB1F5801F07D101685C
:1052F000496821F4C001426C11430268516090F882
:10530000241001F0800139B10168496821F40021BD
:10531000826C114302685160704738B5044600251D
:105320000020E066FBF7A4FC05462068006800F05A
:10533000080008280CD16FF07E402B4600224FF465
:1053400000110090204600F028FB08B1032038BD72
:105350002068006800F0040004280CD16FF07E4043
:105360002B4600224FF480010090204600F015FBF0
:1053700008B10320EBE7202084F8690084F86A0074
:1053800000BF002084F8680000BF00BFDFE770B5F1
:105390000546AC6B0020A4F85A00A4F85200204641
:1053A000FCF740F970BD0168096821F4907102684A
:1053B00011600168896821F0010102689160202173
:1053C00080F86A10704710B504462068006820F025
:1053D000400021680860202084F869002046FCF71E
:1053E000F4FB002010BD00000146194A08689042F5
:1053F00001D100207047174A0868904201D101206E
:10540000F8E7154A0868904201D10220F2E7134AF2
:105410000868904201D10320ECE7114A08689042E5
:1054200001D10420E6E70F4A0868904201D1052027
:10543000E0E70D4A0868904201D10620DAE70B4AFE
:105440000868904201D10720D4E7FF20D2E700008E
:10545000001001400044004000480040004C004063
:10546000005000400014014000780040007C0040E3
:105470002DE9F04104460D4616461F46DDF818801A
:1054800004EB4411214A02EBC1004FF48471FAF796
:10549000A1FF1F4850F82400C4EBC4011D4A02EBD1
:1054A00001110860C4EBC400114601EB0010456017
:1054B000C4EBC40001EB00108660C4EBC40001EB38
:1054C0000010C760C4EBC40001EB0010C0F81080EE
:1054D0000021C4EBC40002EB001081610C21C4EB7D
:1054E000C40002EB00104161C4EBC40102EB0110E7
:1054F000FCF748F9084A1119C4EBC402054B03EB49
:1055000002100122FCF786F9BDE8F0818C0B022025
:1055100034000220CC1302205400022070B504464F
:10552000B4F85C6094F86A00222833D1A068B0F522
:10553000805F0AD1206940B9656D2068406A3040BB
:105540002880606D801C606507E02068406AF1B2C9
:105550000840626D511C61651070B4F85A00401E1D
:1055600080B2A4F85A0098B92068006820F49070BE
:10557000216808602068806820F001002168886048
:10558000202084F86A002046FCF7A8F9002070BDAE
:105590000020FCE72068806940F0080021688861ED
:1055A0000220F4E72DE9F0470446002510260027E5
:1055B000A846A9462169A068084361690843E169D2
:1055C00040EA010520680068CD4908402843216869
:1055D00008602068406820F44050E1680843216872
:1055E0004860216AA06940EA01052068806820F4CB
:1055F000306028432168886000BFC2492068884223
:1056000015D1C148006800F0030030B1012808D06E
:10561000022804D0032808D105E0012606E002266E
:1056200004E0042602E0082600E000BFC1E0B7491C
:105630002068884215D1B448006800F00C0030B1F1
:10564000042808D0082804D00C2808D105E000263A
:1056500006E0022604E0042602E0082600E000BF7F
:10566000A7E0AB492068884215D1A748006800F040
:10567000300030B1102808D0202804D0302808D1BC
:1056800005E0002606E0022604E0042602E00826E3
:1056900000E000BF8DE09F492068884215D19A48FC
:1056A000006800F0C00030B1402808D0802804D045
:1056B000C02808D105E0002606E0022604E0042602
:1056C00002E0082600E000BF73E0934920688842AA
:1056D00018D18D48006800F4407048B1B0F5807F63
:1056E0000AD0B0F5007F05D0B0F5407F08D105E0C5
:1056F000002606E0022604E0042602E0082600E078
:1057000000BF56E085492068884218D17E4800686D
:1057100000F4406048B1B0F5806F0AD0B0F5006F7A
:1057200005D0B0F5406F08D105E0012606E002265D
:1057300004E0042602E0082600E000BF39E07849D2
:105740002068884218D17048006800F4405048B181
:10575000B0F5805F0AD0B0F5005F05D0B0F5405FCE
:1057600008D105E0002606E0022604E0042602E057
:10577000082600E000BF1CE06A492068884218D172
:105780006148006800F4404048B1B0F5804F0AD04D
:10579000B0F5004F05D0B0F5404F08D105E0002628
:1057A00006E0022604E0042602E0082600E000BF2E
:1057B00000BF00BFE069B0F5004F52D1042E2BD0DE
:1057C00005DC4EB1012E12D0022E3BD11AE0082E7C
:1057D0002DD0102E36D136E0FBF708FC4000616872
:1057E00000EB5100B0FBF1F01FFA80F82EE0FBF760
:1057F00013FC4000616800EB5100B0FBF1F01FFAB0
:1058000080F823E04849606801EB50006168B0FB14
:10581000F1F01FFA80F819E0FBF714FC4000616812
:1058200000EB5100B0FBF1F01FFA80F80EE04FF4EE
:105830008031606801EB50006168B0FBF1F01FFA45
:1058400080F803E000BF4FF0010900BF00BF4FF632
:10585000F07008EA0007C8F3420007432068C760F9
:105860004AE0042E2CD005DC4EB1012E12D0022EBF
:105870003DD11AE0082E2ED0102E38D138E0FBF79B
:10588000B5FB616800EB5100B0FBF1F080B221681C
:10589000C86030E0FBF7C0FB616800EB5100B0FB73
:1058A000F1F080B22168C86025E02049606801EB12
:1058B00050006168B0FBF1F080B22168C8601AE066
:1058C000FBF7C0FB616800EB5100B0FBF1F080B268
:1058D0002168C8600FE04FF40041606801EB5000A0
:1058E0006168B0FBF1F080B22168C86003E000BFDE
:1058F0004FF0010900BF00BF4846BDE8F087000037
:10590000F369FFEF0010014090380240004400406E
:1059100000480040004C004000500040001401408E
:1059200000780040007C00400048E8010024F400BA
:10593000014691F8690021282DD1B1F8520068B9CB
:105940000868006820F080000B681860086800682C
:1059500040F040000B681860002070478868B0F580
:10596000805F0BD1086948B9CA6C1088C0F3080081
:105970000B689862C86C801CC86405E0CB6C581C2E
:10598000C86418780B689862B1F85200401EA1F8FC
:1059900052000020E1E70220DFE72DE9F041044654
:1059A0000D4617469846069E21E0701CF8B12EB1B0
:1059B000FBF75EF9A0EB0800B04218D3206800683E
:1059C00020F4D070216808602068806820F0010011
:1059D00021688860202084F8690084F86A0000BF8C
:1059E000002084F8680000BF0320BDE8F081206833
:1059F000C0692840A84201D1012000E00020B8423F
:105A0000D3D00020F1E7000010B5FCF749FB0548B2
:105A1000FBF70AFE012204490248FBF7FBFEFCF7F4
:105A200055FB10BDCC1302205400022000B587B0F6
:105A300000BF1F48006840F001001D49086008468B
:105A4000006800F00100019000BF00BF00BF1848CF
:105A50001430006840F01000154914310860084601
:105A6000006800F01000019000BF00BF4FF4C0605C
:105A7000029002200390012004900220059007204C
:105A8000069002A90B48FAF7D9FF0B480068006896
:105A900040F020000849096808602520FBF71FF93D
:105AA000032211462520FBF727F907B000BD0000AF
:105AB0003038024000000240CC13022000BFFEE755
:105AC00000BF704770B504460420FBF77DFD104809
:105AD000046025460F4800680F49B1FBF0F04543CC
